{
  "contractName": "Auction",
  "abi": [
    {
      "inputs": [
        {
          "internalType": "uint256",
          "name": "auctionTime",
          "type": "uint256"
        },
        {
          "internalType": "address payable",
          "name": "beneficiaryAdd",
          "type": "address"
        }
      ],
      "stateMutability": "nonpayable",
      "type": "constructor"
    },
    {
      "inputs": [],
      "name": "auctionAlreadyEnded",
      "type": "error"
    },
    {
      "inputs": [],
      "name": "auctionEndAlreadyCalled",
      "type": "error"
    },
    {
      "inputs": [
        {
          "internalType": "uint256",
          "name": "timeRemaining",
          "type": "uint256"
        }
      ],
      "name": "auctionNotEnded",
      "type": "error"
    },
    {
      "inputs": [
        {
          "internalType": "uint256",
          "name": "amount",
          "type": "uint256"
        }
      ],
      "name": "bidNotHigh",
      "type": "error"
    },
    {
      "anonymous": false,
      "inputs": [
        {
          "indexed": false,
          "internalType": "address",
          "name": "winner",
          "type": "address"
        },
        {
          "indexed": false,
          "internalType": "uint256",
          "name": "winnerBet",
          "type": "uint256"
        }
      ],
      "name": "auctionEnded",
      "type": "event"
    },
    {
      "anonymous": false,
      "inputs": [
        {
          "indexed": false,
          "internalType": "address",
          "name": "bidder",
          "type": "address"
        },
        {
          "indexed": false,
          "internalType": "uint256",
          "name": "amount",
          "type": "uint256"
        }
      ],
      "name": "highestBidIncreased",
      "type": "event"
    },
    {
      "inputs": [],
      "name": "auctionEndTime",
      "outputs": [
        {
          "internalType": "uint256",
          "name": "",
          "type": "uint256"
        }
      ],
      "stateMutability": "view",
      "type": "function"
    },
    {
      "inputs": [],
      "name": "beneficiary",
      "outputs": [
        {
          "internalType": "address payable",
          "name": "",
          "type": "address"
        }
      ],
      "stateMutability": "view",
      "type": "function"
    },
    {
      "inputs": [],
      "name": "highestBid",
      "outputs": [
        {
          "internalType": "uint256",
          "name": "",
          "type": "uint256"
        }
      ],
      "stateMutability": "view",
      "type": "function"
    },
    {
      "inputs": [],
      "name": "highestBidder",
      "outputs": [
        {
          "internalType": "address",
          "name": "",
          "type": "address"
        }
      ],
      "stateMutability": "view",
      "type": "function"
    },
    {
      "inputs": [],
      "name": "bid",
      "outputs": [],
      "stateMutability": "payable",
      "type": "function"
    },
    {
      "inputs": [],
      "name": "withdraw",
      "outputs": [
        {
          "internalType": "bool",
          "name": "",
          "type": "bool"
        }
      ],
      "stateMutability": "payable",
      "type": "function"
    },
    {
      "inputs": [],
      "name": "end",
      "outputs": [],
      "stateMutability": "nonpayable",
      "type": "function"
    },
    {
      "inputs": [],
      "name": "hello",
      "outputs": [
        {
          "internalType": "string",
          "name": "",
          "type": "string"
        }
      ],
      "stateMutability": "pure",
      "type": "function"
    }
  ],
  "bytecode": "0x60806040523480156200001157600080fd5b5060405162000b1e38038062000b1e833981810160405281019062000037919062000138565b806000806101000a81548173ffffffffffffffffffffffffffffffffffffffff021916908373ffffffffffffffffffffffffffffffffffffffff1602179055508142620000859190620001ae565b6001819055505050620001e9565b600080fd5b6000819050919050565b620000ad8162000098565b8114620000b957600080fd5b50565b600081519050620000cd81620000a2565b92915050565b600073ffffffffffffffffffffffffffffffffffffffff82169050919050565b60006200010082620000d3565b9050919050565b6200011281620000f3565b81146200011e57600080fd5b50565b600081519050620001328162000107565b92915050565b6000806040838503121562000152576200015162000093565b5b60006200016285828601620000bc565b9250506020620001758582860162000121565b9150509250929050565b7f4e487b7100000000000000000000000000000000000000000000000000000000600052601160045260246000fd5b6000620001bb8262000098565b9150620001c88362000098565b9250828201905080821115620001e357620001e26200017f565b5b92915050565b61092580620001f96000396000f3fe60806040526004361061007b5760003560e01c80634b449cba1161004e5780634b449cba146100fe57806391f9015714610129578063d57bde7914610154578063efbe1c1c1461017f5761007b565b80631998aeef1461008057806319ff1d211461008a57806338af3eed146100b55780633ccfd60b146100e0575b600080fd5b610088610196565b005b34801561009657600080fd5b5061009f610346565b6040516100ac919061070b565b60405180910390f35b3480156100c157600080fd5b506100ca610383565b6040516100d7919061076e565b60405180910390f35b6100e86103a7565b6040516100f591906107a4565b60405180910390f35b34801561010a57600080fd5b506101136104cb565b60405161012091906107d8565b60405180910390f35b34801561013557600080fd5b5061013e6104d1565b60405161014b9190610814565b60405180910390f35b34801561016057600080fd5b506101696104f7565b60405161017691906107d8565b60405180910390f35b34801561018b57600080fd5b506101946104fd565b005b6001544211156101d2576040517f5983708c00000000000000000000000000000000000000000000000000000000815260040160405180910390fd5b600354341161021a576003546040517fcbbdcf9900000000000000000000000000000000000000000000000000000000815260040161021191906107d8565b60405180910390fd5b60006003541461029f5760035460046000600260019054906101000a900473ffffffffffffffffffffffffffffffffffffffff1673ffffffffffffffffffffffffffffffffffffffff1673ffffffffffffffffffffffffffffffffffffffff1681526020019081526020016000206000828254610297919061085e565b925050819055505b33600260016101000a81548173ffffffffffffffffffffffffffffffffffffffff021916908373ffffffffffffffffffffffffffffffffffffffff160217905550346003819055507fd8f1dcefca138e7252b01cd1477fab84d8763d9b0c50b16805e3190c1c393a34600260019054906101000a900473ffffffffffffffffffffffffffffffffffffffff1660035460405161033c929190610892565b60405180910390a1565b60606040518060400160405280600581526020017f48656c6c6f000000000000000000000000000000000000000000000000000000815250905090565b60008054906101000a900473ffffffffffffffffffffffffffffffffffffffff1681565b600080600460003373ffffffffffffffffffffffffffffffffffffffff1673ffffffffffffffffffffffffffffffffffffffff16815260200190815260200160002054905060008111156104c2576000600460003373ffffffffffffffffffffffffffffffffffffffff1673ffffffffffffffffffffffffffffffffffffffff168152602001908152602001600020819055503373ffffffffffffffffffffffffffffffffffffffff166108fc829081150290604051600060405180830381858888f193505050506104c15780600460003373ffffffffffffffffffffffffffffffffffffffff1673ffffffffffffffffffffffffffffffffffffffff1681526020019081526020016000208190555060009150506104c8565b5b60019150505b90565b60015481565b600260019054906101000a900473ffffffffffffffffffffffffffffffffffffffff1681565b60035481565b600154421015610551574260015461051591906108bb565b6040517fd5468e6900000000000000000000000000000000000000000000000000000000815260040161054891906107d8565b60405180910390fd5b600260009054906101000a900460ff1615610598576040517f2a6f707000000000000000000000000000000000000000000000000000000000815260040160405180910390fd5b6001600260006101000a81548160ff0219169083151502179055507f6e0e2174dbf7b77c08b6f9a2799b9feda84a6d54a5644864582040100a47d4c5600260019054906101000a900473ffffffffffffffffffffffffffffffffffffffff16600354604051610608929190610892565b60405180910390a160008054906101000a900473ffffffffffffffffffffffffffffffffffffffff1673ffffffffffffffffffffffffffffffffffffffff166108fc6003549081150290604051600060405180830381858888f19350505050158015610678573d6000803e3d6000fd5b50565b600081519050919050565b600082825260208201905092915050565b60005b838110156106b557808201518184015260208101905061069a565b60008484015250505050565b6000601f19601f8301169050919050565b60006106dd8261067b565b6106e78185610686565b93506106f7818560208601610697565b610700816106c1565b840191505092915050565b6000602082019050818103600083015261072581846106d2565b905092915050565b600073ffffffffffffffffffffffffffffffffffffffff82169050919050565b60006107588261072d565b9050919050565b6107688161074d565b82525050565b6000602082019050610783600083018461075f565b92915050565b60008115159050919050565b61079e81610789565b82525050565b60006020820190506107b96000830184610795565b92915050565b6000819050919050565b6107d2816107bf565b82525050565b60006020820190506107ed60008301846107c9565b92915050565b60006107fe8261072d565b9050919050565b61080e816107f3565b82525050565b60006020820190506108296000830184610805565b92915050565b7f4e487b7100000000000000000000000000000000000000000000000000000000600052601160045260246000fd5b6000610869826107bf565b9150610874836107bf565b925082820190508082111561088c5761088b61082f565b5b92915050565b60006040820190506108a76000830185610805565b6108b460208301846107c9565b9392505050565b60006108c6826107bf565b91506108d1836107bf565b92508282039050818111156108e9576108e861082f565b5b9291505056fea2646970667358221220ed2a497945230e5c2e344c4a2875fb18fc19b7693b30450003bafe1eebb044f664736f6c63430008120033",
  "immutableReferences": {},
  "source": "// SPDX-License-Identifier: MIT\npragma solidity >=0.4.22 <0.9.0;\n\ncontract Auction {\n    address payable public beneficiary;\n    uint public auctionEndTime;\n    bool ended;\n\n    address public highestBidder;\n    uint public highestBid;\n\n    // track bidders who decide to withdraw their bids at a later point\n    mapping (address => uint) pendingReturns;\n\n    event highestBidIncreased(address bidder, uint amount);\n    event auctionEnded(address winner, uint winnerBet);\n\n    error auctionAlreadyEnded();\n    error bidNotHigh(uint amount);\n    error auctionNotEnded(uint timeRemaining);\n    error auctionEndAlreadyCalled();\n\n    constructor(uint auctionTime, address payable beneficiaryAdd){\n        beneficiary = beneficiaryAdd;\n        auctionEndTime = block.timestamp + auctionTime;\n    }\n\n    function bid() external payable {\n\n        if (block.timestamp > auctionEndTime) {\n            revert auctionAlreadyEnded();\n        }\n\n        if (msg.value <= highestBid) {\n            revert bidNotHigh(highestBid);\n        }\n\n        if (highestBid != 0) {\n            pendingReturns[highestBidder] += highestBid;\n        }\n\n        highestBidder = msg.sender;\n        highestBid = msg.value;\n        emit highestBidIncreased(highestBidder, highestBid);\n    }\n\n    function withdraw() external payable returns (bool) {\n        uint bidAmount = pendingReturns[msg.sender];\n\n        if (bidAmount > 0) {\n            pendingReturns[msg.sender] = 0;\n\n            if (!payable(msg.sender).send(bidAmount)) {\n                pendingReturns[msg.sender] = bidAmount;\n                return false;\n            }\n        }\n        return true;\n    }\n\n\n    function end() external {\n        if (block.timestamp < auctionEndTime) {\n            revert auctionNotEnded(auctionEndTime - block.timestamp);\n        }\n\n        if (ended) {\n            revert auctionEndAlreadyCalled();\n        }\n\n        ended = true;\n        emit auctionEnded(highestBidder, highestBid);\n\n        beneficiary.transfer(highestBid);\n    }\n\n\n    function hello() public pure returns (string memory) {\n        return \"Hello\";\n    }\n}\n",
  "sourcePath": "/mnt/c/Users/ardennt/Documents/CS/spring2023/swarmURP/smartcontract/contracts/Auction.sol",
  "compiler": {
    "name": "solc",
    "version": "0.8.18+commit.87f61d96.Emscripten.clang"
  },
  "schemaVersion": "3.4.12",
  "updatedAt": "2023-02-23T03:58:17.478Z",
  "devdoc": {
    "kind": "dev",
    "methods": {},
    "version": 1
  },
  "userdoc": {
    "kind": "user",
    "methods": {},
    "version": 1
  }
}